{
  "contractName": "Main",
  "abi": [
    {
      "constant": true,
      "inputs": [
        {
          "name": "",
          "type": "uint256"
        }
      ],
      "name": "posts",
      "outputs": [
        {
          "name": "",
          "type": "address"
        }
      ],
      "payable": false,
      "stateMutability": "view",
      "type": "function"
    },
    {
      "constant": true,
      "inputs": [
        {
          "name": "",
          "type": "uint256"
        }
      ],
      "name": "messages",
      "outputs": [
        {
          "name": "",
          "type": "address"
        }
      ],
      "payable": false,
      "stateMutability": "view",
      "type": "function"
    },
    {
      "constant": true,
      "inputs": [
        {
          "name": "",
          "type": "uint256"
        }
      ],
      "name": "users",
      "outputs": [
        {
          "name": "",
          "type": "address"
        }
      ],
      "payable": false,
      "stateMutability": "view",
      "type": "function"
    },
    {
      "constant": false,
      "inputs": [
        {
          "name": "messagesAddress",
          "type": "address"
        }
      ],
      "name": "setMessagesAddress",
      "outputs": [],
      "payable": false,
      "stateMutability": "nonpayable",
      "type": "function"
    },
    {
      "constant": false,
      "inputs": [
        {
          "name": "postsAddress",
          "type": "address"
        }
      ],
      "name": "setPostsAddress",
      "outputs": [],
      "payable": false,
      "stateMutability": "nonpayable",
      "type": "function"
    },
    {
      "constant": false,
      "inputs": [
        {
          "name": "usersAddress",
          "type": "address"
        }
      ],
      "name": "setUsersAddress",
      "outputs": [],
      "payable": false,
      "stateMutability": "nonpayable",
      "type": "function"
    }
  ],
  "bytecode": "0x608060405234801561001057600080fd5b50610502806100206000396000f3fe608060405260043610610078576000357c0100000000000000000000000000000000000000000000000000000000900463ffffffff1680630b1e7f831461007d5780630d80fefd146100f8578063365b98b21461017357806336fd6624146101ee578063bbfff47d1461023f578063d830ff6614610290575b600080fd5b34801561008957600080fd5b506100b6600480360360208110156100a057600080fd5b81019080803590602001909291905050506102e1565b604051808273ffffffffffffffffffffffffffffffffffffffff1673ffffffffffffffffffffffffffffffffffffffff16815260200191505060405180910390f35b34801561010457600080fd5b506101316004803603602081101561011b57600080fd5b810190808035906020019092919050505061031f565b604051808273ffffffffffffffffffffffffffffffffffffffff1673ffffffffffffffffffffffffffffffffffffffff16815260200191505060405180910390f35b34801561017f57600080fd5b506101ac6004803603602081101561019657600080fd5b810190808035906020019092919050505061035d565b604051808273ffffffffffffffffffffffffffffffffffffffff1673ffffffffffffffffffffffffffffffffffffffff16815260200191505060405180910390f35b3480156101fa57600080fd5b5061023d6004803603602081101561021157600080fd5b81019080803573ffffffffffffffffffffffffffffffffffffffff16906020019092919050505061039b565b005b34801561024b57600080fd5b5061028e6004803603602081101561026257600080fd5b81019080803573ffffffffffffffffffffffffffffffffffffffff169060200190929190505050610404565b005b34801561029c57600080fd5b506102df600480360360208110156102b357600080fd5b81019080803573ffffffffffffffffffffffffffffffffffffffff16906020019092919050505061046d565b005b6001818154811015156102f057fe5b906000526020600020016000915054906101000a900473ffffffffffffffffffffffffffffffffffffffff1681565b60008181548110151561032e57fe5b906000526020600020016000915054906101000a900473ffffffffffffffffffffffffffffffffffffffff1681565b60028181548110151561036c57fe5b906000526020600020016000915054906101000a900473ffffffffffffffffffffffffffffffffffffffff1681565b60018190806001815401808255809150509060018203906000526020600020016000909192909190916101000a81548173ffffffffffffffffffffffffffffffffffffffff021916908373ffffffffffffffffffffffffffffffffffffffff1602179055505050565b60028190806001815401808255809150509060018203906000526020600020016000909192909190916101000a81548173ffffffffffffffffffffffffffffffffffffffff021916908373ffffffffffffffffffffffffffffffffffffffff1602179055505050565b60008190806001815401808255809150509060018203906000526020600020016000909192909190916101000a81548173ffffffffffffffffffffffffffffffffffffffff021916908373ffffffffffffffffffffffffffffffffffffffff160217905550505056fea165627a7a72305820fab2724e3a3dc95622e8408a2902276d965425b2a5cd5e408ab8e547492b01960029",
  "source": "pragma solidity ^0.5.0;\n\ncontract Main {\n    \n    //messages address\n    address[] public messages;\n    //posts address\n    address[] public posts;\n    //users address\n    address[] public users;\n    \n    /**\n        Set Messages contract address\n     */\n    function setMessagesAddress(address messagesAddress) public {\n        messages.push(messagesAddress);\n    }\n\n    /**\n        Set posts contract address\n     */        \n    function setPostsAddress(address postsAddress) public {\n        posts.push(postsAddress);\n    }\n\n    /**\n        Set Users address\n     */\n    function setUsersAddress(address usersAddress) public{\n        users.push(usersAddress);\n    }\n\n}",
  "sourcePath": "/home/chamodya/Documents/HashPost/contracts/Main.sol",
  "compiler": {
    "name": "solc",
    "version": "0.5.0+commit.1d4f565a.Emscripten.clang"
  },
  "schemaVersion": "3.0.2",
  "updatedAt": "2019-02-26T14:07:48.812Z",
  "devdoc": {
    "methods": {}
  },
  "userdoc": {
    "methods": {
      "setMessagesAddress(address)": {
        "notice": "Set Messages contract address"
      },
      "setPostsAddress(address)": {
        "notice": "Set posts contract address"
      },
      "setUsersAddress(address)": {
        "notice": "Set Users address"
      }
    }
  }
}