{
  "contractName": "Main",
  "abi": [
    {
      "constant": true,
      "inputs": [
        {
          "name": "",
          "type": "uint256"
        }
      ],
      "name": "posts",
      "outputs": [
        {
          "name": "",
          "type": "address"
        }
      ],
      "payable": false,
      "stateMutability": "view",
      "type": "function"
    },
    {
      "constant": true,
      "inputs": [
        {
          "name": "",
          "type": "uint256"
        }
      ],
      "name": "messages",
      "outputs": [
        {
          "name": "",
          "type": "address"
        }
      ],
      "payable": false,
      "stateMutability": "view",
      "type": "function"
    },
    {
      "constant": true,
      "inputs": [
        {
          "name": "",
          "type": "uint256"
        }
      ],
      "name": "users",
      "outputs": [
        {
          "name": "",
          "type": "address"
        }
      ],
      "payable": false,
      "stateMutability": "view",
      "type": "function"
    },
    {
      "constant": false,
      "inputs": [
        {
          "name": "messagesAddress",
          "type": "address"
        }
      ],
      "name": "setMessagesAddress",
      "outputs": [],
      "payable": false,
      "stateMutability": "nonpayable",
      "type": "function"
    },
    {
      "constant": false,
      "inputs": [
        {
          "name": "postsAddress",
          "type": "address"
        }
      ],
      "name": "setPostsAddress",
      "outputs": [],
      "payable": false,
      "stateMutability": "nonpayable",
      "type": "function"
    },
    {
      "constant": false,
      "inputs": [
        {
          "name": "usersAddress",
          "type": "address"
        }
      ],
      "name": "setUsersAddress",
      "outputs": [],
      "payable": false,
      "stateMutability": "nonpayable",
      "type": "function"
    }
  ],
  "bytecode": "0x608060405234801561001057600080fd5b50610498806100206000396000f3fe608060405234801561001057600080fd5b50600436106100625760003560e01c80630b1e7f83146100675780630d80fefd146100d5578063365b98b21461014357806336fd6624146101b1578063bbfff47d146101f5578063d830ff6614610239575b600080fd5b6100936004803603602081101561007d57600080fd5b810190808035906020019092919050505061027d565b604051808273ffffffffffffffffffffffffffffffffffffffff1673ffffffffffffffffffffffffffffffffffffffff16815260200191505060405180910390f35b610101600480360360208110156100eb57600080fd5b81019080803590602001909291905050506102b9565b604051808273ffffffffffffffffffffffffffffffffffffffff1673ffffffffffffffffffffffffffffffffffffffff16815260200191505060405180910390f35b61016f6004803603602081101561015957600080fd5b81019080803590602001909291905050506102f5565b604051808273ffffffffffffffffffffffffffffffffffffffff1673ffffffffffffffffffffffffffffffffffffffff16815260200191505060405180910390f35b6101f3600480360360208110156101c757600080fd5b81019080803573ffffffffffffffffffffffffffffffffffffffff169060200190929190505050610331565b005b6102376004803603602081101561020b57600080fd5b81019080803573ffffffffffffffffffffffffffffffffffffffff16906020019092919050505061039a565b005b61027b6004803603602081101561024f57600080fd5b81019080803573ffffffffffffffffffffffffffffffffffffffff169060200190929190505050610403565b005b6001818154811061028a57fe5b906000526020600020016000915054906101000a900473ffffffffffffffffffffffffffffffffffffffff1681565b600081815481106102c657fe5b906000526020600020016000915054906101000a900473ffffffffffffffffffffffffffffffffffffffff1681565b6002818154811061030257fe5b906000526020600020016000915054906101000a900473ffffffffffffffffffffffffffffffffffffffff1681565b60018190806001815401808255809150509060018203906000526020600020016000909192909190916101000a81548173ffffffffffffffffffffffffffffffffffffffff021916908373ffffffffffffffffffffffffffffffffffffffff1602179055505050565b60028190806001815401808255809150509060018203906000526020600020016000909192909190916101000a81548173ffffffffffffffffffffffffffffffffffffffff021916908373ffffffffffffffffffffffffffffffffffffffff1602179055505050565b60008190806001815401808255809150509060018203906000526020600020016000909192909190916101000a81548173ffffffffffffffffffffffffffffffffffffffff021916908373ffffffffffffffffffffffffffffffffffffffff160217905550505056fea165627a7a723058209c0bba668ec76fa15ffe02759a61f6da2c00f092394949b7378a422645adcb250029",
  "source": "pragma solidity ^0.5.0;\r\n\r\ncontract Main {\r\n    \r\n    //messages address\r\n    address[] public messages;\r\n    //posts address\r\n    address[] public posts;\r\n    //users address\r\n    address[] public users;\r\n    \r\n    /**\r\n        Set Messages contract address\r\n     */\r\n    function setMessagesAddress(address messagesAddress) public {\r\n        messages.push(messagesAddress);\r\n    }\r\n\r\n    /**\r\n        Set posts contract address\r\n     */        \r\n    function setPostsAddress(address postsAddress) public {\r\n        posts.push(postsAddress);\r\n    }\r\n\r\n    /**\r\n        Set Users address\r\n     */\r\n    function setUsersAddress(address usersAddress) public{\r\n        users.push(usersAddress);\r\n    }\r\n\r\n}",
  "sourcePath": "C:/Users/chamodya wimansha/Documents/hashpost/contracts/Main.sol",
  "compiler": {
    "name": "solc",
    "version": "0.5.8+commit.23d335f2.Emscripten.clang"
  },
  "schemaVersion": "3.0.11",
  "updatedAt": "2019-06-21T15:05:42.677Z",
  "devdoc": {
    "methods": {}
  },
  "userdoc": {
    "methods": {
      "setMessagesAddress(address)": {
        "notice": "Set Messages contract address\r"
      },
      "setPostsAddress(address)": {
        "notice": "Set posts contract address\r"
      },
      "setUsersAddress(address)": {
        "notice": "Set Users address\r"
      }
    }
  }
}