{
  "contractName": "Messages",
  "abi": [
    {
      "constant": true,
      "inputs": [
        {
          "name": "",
          "type": "address"
        },
        {
          "name": "",
          "type": "uint256"
        }
      ],
      "name": "messageMap",
      "outputs": [
        {
          "name": "sender",
          "type": "address"
        },
        {
          "name": "header",
          "type": "string"
        },
        {
          "name": "content",
          "type": "string"
        },
        {
          "name": "createdOn",
          "type": "string"
        }
      ],
      "payable": false,
      "stateMutability": "view",
      "type": "function",
      "signature": "0x064770cc"
    },
    {
      "constant": false,
      "inputs": [
        {
          "name": "sender",
          "type": "address"
        },
        {
          "name": "header",
          "type": "string"
        },
        {
          "name": "content",
          "type": "string"
        },
        {
          "name": "createOn",
          "type": "string"
        }
      ],
      "name": "sendMessage",
      "outputs": [],
      "payable": false,
      "stateMutability": "nonpayable",
      "type": "function",
      "signature": "0x01d4a82f"
    }
  ],
  "bytecode": "0x608060405234801561001057600080fd5b50610893806100206000396000f3fe60806040526004361061004c576000357c0100000000000000000000000000000000000000000000000000000000900463ffffffff16806301d4a82f14610051578063064770cc14610267575b600080fd5b34801561005d57600080fd5b506102656004803603608081101561007457600080fd5b81019080803573ffffffffffffffffffffffffffffffffffffffff169060200190929190803590602001906401000000008111156100b157600080fd5b8201836020820111156100c357600080fd5b803590602001918460018302840111640100000000831117156100e557600080fd5b91908080601f016020809104026020016040519081016040528093929190818152602001838380828437600081840152601f19601f8201169050808301925050505050505091929192908035906020019064010000000081111561014857600080fd5b82018360208201111561015a57600080fd5b8035906020019184600183028401116401000000008311171561017c57600080fd5b91908080601f016020809104026020016040519081016040528093929190818152602001838380828437600081840152601f19601f820116905080830192505050505050509192919290803590602001906401000000008111156101df57600080fd5b8201836020820111156101f157600080fd5b8035906020019184600183028401116401000000008311171561021357600080fd5b91908080601f016020809104026020016040519081016040528093929190818152602001838380828437600081840152601f19601f820116905080830192505050505050509192919290505050610446565b005b34801561027357600080fd5b506102c06004803603604081101561028a57600080fd5b81019080803573ffffffffffffffffffffffffffffffffffffffff1690602001909291908035906020019092919050505061058e565b604051808573ffffffffffffffffffffffffffffffffffffffff1673ffffffffffffffffffffffffffffffffffffffff168152602001806020018060200180602001848103845287818151815260200191508051906020019080838360005b8381101561033a57808201518184015260208101905061031f565b50505050905090810190601f1680156103675780820380516001836020036101000a031916815260200191505b50848103835286818151815260200191508051906020019080838360005b838110156103a0578082015181840152602081019050610385565b50505050905090810190601f1680156103cd5780820380516001836020036101000a031916815260200191505b50848103825285818151815260200191508051906020019080838360005b838110156104065780820151818401526020810190506103eb565b50505050905090810190601f1680156104335780820380516001836020036101000a031916815260200191505b5097505050505050505060405180910390f35b6000803373ffffffffffffffffffffffffffffffffffffffff1673ffffffffffffffffffffffffffffffffffffffff1681526020019081526020016000206080604051908101604052808673ffffffffffffffffffffffffffffffffffffffff168152602001858152602001848152602001838152509080600181540180825580915050906001820390600052602060002090600402016000909192909190915060008201518160000160006101000a81548173ffffffffffffffffffffffffffffffffffffffff021916908373ffffffffffffffffffffffffffffffffffffffff160217905550602082015181600101908051906020019061054a9291906107c2565b5060408201518160020190805190602001906105679291906107c2565b5060608201518160030190805190602001906105849291906107c2565b5050505050505050565b6000602052816000526040600020818154811015156105a957fe5b9060005260206000209060040201600091509150508060000160009054906101000a900473ffffffffffffffffffffffffffffffffffffffff1690806001018054600181600116156101000203166002900480601f01602080910402602001604051908101604052809291908181526020018280546001816001161561010002031660029004801561067c5780601f106106515761010080835404028352916020019161067c565b820191906000526020600020905b81548152906001019060200180831161065f57829003601f168201915b505050505090806002018054600181600116156101000203166002900480601f01602080910402602001604051908101604052809291908181526020018280546001816001161561010002031660029004801561071a5780601f106106ef5761010080835404028352916020019161071a565b820191906000526020600020905b8154815290600101906020018083116106fd57829003601f168201915b505050505090806003018054600181600116156101000203166002900480601f0160208091040260200160405190810160405280929190818152602001828054600181600116156101000203166002900480156107b85780601f1061078d576101008083540402835291602001916107b8565b820191906000526020600020905b81548152906001019060200180831161079b57829003601f168201915b5050505050905084565b828054600181600116156101000203166002900490600052602060002090601f016020900481019282601f1061080357805160ff1916838001178555610831565b82800160010185558215610831579182015b82811115610830578251825591602001919060010190610815565b5b50905061083e9190610842565b5090565b61086491905b80821115610860576000816000905550600101610848565b5090565b9056fea165627a7a723058206bb44ae006c55eaef0a7a1e85c7dd9881d40eadef1ff3c7a3f74f0ef517ceb820029",
  "source": "pragma solidity ^0.5.0;\n\ncontract Messages{\n    \n    struct message{\n        address sender;\n        string header;\n        string content;\n        string createdOn;\n    }\n    /**\n     *  Messages store in a mapping\n     */\n    mapping(address => message[]) public messageMap;\n\n    /**\n     * Send a new message\n     */\n    function sendMessage(address sender, string memory header, string memory content, string memory createOn) public{\n        messageMap[msg.sender].push(message(sender,header,content,createOn));\n    }\n\n}\n\n",
  "sourcePath": "/home/chamodya/Documents/HashPost/contracts/Messages.sol",
  "compiler": {
    "name": "solc",
    "version": "0.5.0+commit.1d4f565a.Emscripten.clang"
  },
  "schemaVersion": "3.0.2",
  "updatedAt": "2019-02-27T01:10:02.002Z",
  "devdoc": {
    "methods": {}
  },
  "userdoc": {
    "methods": {
      "sendMessage(address,string,string,string)": {
        "notice": "Send a new message"
      }
    }
  }
}