{
  "contractName": "Posts",
  "abi": [
    {
      "constant": true,
      "inputs": [
        {
          "name": "",
          "type": "uint64"
        }
      ],
      "name": "postsMap",
      "outputs": [
        {
          "name": "heading",
          "type": "string"
        },
        {
          "name": "content",
          "type": "string"
        },
        {
          "name": "postedBy",
          "type": "address"
        },
        {
          "name": "postedOn",
          "type": "uint256"
        }
      ],
      "payable": false,
      "stateMutability": "view",
      "type": "function"
    },
    {
      "constant": true,
      "inputs": [
        {
          "name": "",
          "type": "uint64"
        }
      ],
      "name": "commentsMap",
      "outputs": [
        {
          "name": "postId",
          "type": "uint64"
        },
        {
          "name": "content",
          "type": "string"
        },
        {
          "name": "postedBy",
          "type": "address"
        },
        {
          "name": "postedOn",
          "type": "uint256"
        }
      ],
      "payable": false,
      "stateMutability": "view",
      "type": "function"
    },
    {
      "constant": true,
      "inputs": [],
      "name": "postsCount",
      "outputs": [
        {
          "name": "",
          "type": "uint64"
        }
      ],
      "payable": false,
      "stateMutability": "view",
      "type": "function"
    },
    {
      "constant": true,
      "inputs": [],
      "name": "commentsCount",
      "outputs": [
        {
          "name": "",
          "type": "uint64"
        }
      ],
      "payable": false,
      "stateMutability": "view",
      "type": "function"
    },
    {
      "constant": false,
      "inputs": [
        {
          "name": "heading",
          "type": "string"
        },
        {
          "name": "content",
          "type": "string"
        },
        {
          "name": "postedOn",
          "type": "uint256"
        }
      ],
      "name": "newPost",
      "outputs": [],
      "payable": false,
      "stateMutability": "nonpayable",
      "type": "function"
    },
    {
      "constant": false,
      "inputs": [
        {
          "name": "postId",
          "type": "uint64"
        },
        {
          "name": "content",
          "type": "string"
        },
        {
          "name": "postedOn",
          "type": "uint256"
        }
      ],
      "name": "newComment",
      "outputs": [],
      "payable": false,
      "stateMutability": "nonpayable",
      "type": "function"
    }
  ],
  "bytecode": "0x608060405234801561001057600080fd5b50610b92806100206000396000f3fe608060405234801561001057600080fd5b50600436106100625760003560e01c806308f6a53e146100675780630b72cbe2146101be5780632dcbe545146102c4578063a28f49eb146102f6578063c198715a14610452578063c9bf646d1461052b575b600080fd5b61009d6004803603602081101561007d57600080fd5b81019080803567ffffffffffffffff16906020019092919050505061055d565b6040518080602001806020018573ffffffffffffffffffffffffffffffffffffffff1673ffffffffffffffffffffffffffffffffffffffff168152602001848152602001838103835287818151815260200191508051906020019080838360005b838110156101195780820151818401526020810190506100fe565b50505050905090810190601f1680156101465780820380516001836020036101000a031916815260200191505b50838103825286818151815260200191508051906020019080838360005b8381101561017f578082015181840152602081019050610164565b50505050905090810190601f1680156101ac5780820380516001836020036101000a031916815260200191505b50965050505050505060405180910390f35b6101f4600480360360208110156101d457600080fd5b81019080803567ffffffffffffffff1690602001909291905050506106dd565b604051808567ffffffffffffffff1667ffffffffffffffff168152602001806020018473ffffffffffffffffffffffffffffffffffffffff1673ffffffffffffffffffffffffffffffffffffffff168152602001838152602001828103825285818151815260200191508051906020019080838360005b8381101561028657808201518184015260208101905061026b565b50505050905090810190601f1680156102b35780820380516001836020036101000a031916815260200191505b509550505050505060405180910390f35b6102cc6107d9565b604051808267ffffffffffffffff1667ffffffffffffffff16815260200191505060405180910390f35b6104506004803603606081101561030c57600080fd5b810190808035906020019064010000000081111561032957600080fd5b82018360208201111561033b57600080fd5b8035906020019184600183028401116401000000008311171561035d57600080fd5b91908080601f016020809104026020016040519081016040528093929190818152602001838380828437600081840152601f19601f820116905080830192505050505050509192919290803590602001906401000000008111156103c057600080fd5b8201836020820111156103d257600080fd5b803590602001918460018302840111640100000000831117156103f457600080fd5b91908080601f016020809104026020016040519081016040528093929190818152602001838380828437600081840152601f19601f820116905080830192505050505050509192919290803590602001909291905050506107f2565b005b6105296004803603606081101561046857600080fd5b81019080803567ffffffffffffffff1690602001909291908035906020019064010000000081111561049957600080fd5b8201836020820111156104ab57600080fd5b803590602001918460018302840111640100000000831117156104cd57600080fd5b91908080601f016020809104026020016040519081016040528093929190818152602001838380828437600081840152601f19601f8201169050808301925050505050505091929192908035906020019092919050505061093e565b005b610533610aa7565b604051808267ffffffffffffffff1667ffffffffffffffff16815260200191505060405180910390f35b6001602052806000526040600020600091509050806000018054600181600116156101000203166002900480601f0160208091040260200160405190810160405280929190818152602001828054600181600116156101000203166002900480156106095780601f106105de57610100808354040283529160200191610609565b820191906000526020600020905b8154815290600101906020018083116105ec57829003601f168201915b505050505090806001018054600181600116156101000203166002900480601f0160208091040260200160405190810160405280929190818152602001828054600181600116156101000203166002900480156106a75780601f1061067c576101008083540402835291602001916106a7565b820191906000526020600020905b81548152906001019060200180831161068a57829003601f168201915b5050505050908060020160009054906101000a900473ffffffffffffffffffffffffffffffffffffffff16908060030154905084565b60026020528060005260406000206000915090508060000160009054906101000a900467ffffffffffffffff1690806001018054600181600116156101000203166002900480601f0160208091040260200160405190810160405280929190818152602001828054600181600116156101000203166002900480156107a35780601f10610778576101008083540402835291602001916107a3565b820191906000526020600020905b81548152906001019060200180831161078657829003601f168201915b5050505050908060020160009054906101000a900473ffffffffffffffffffffffffffffffffffffffff16908060030154905084565b6000809054906101000a900467ffffffffffffffff1681565b60008081819054906101000a900467ffffffffffffffff168092919060010191906101000a81548167ffffffffffffffff021916908367ffffffffffffffff1602179055505060405180608001604052808481526020018381526020013373ffffffffffffffffffffffffffffffffffffffff16815260200182815250600160008060009054906101000a900467ffffffffffffffff1667ffffffffffffffff1667ffffffffffffffff16815260200190815260200160002060008201518160000190805190602001906108c7929190610ac1565b5060208201518160010190805190602001906108e4929190610ac1565b5060408201518160020160006101000a81548173ffffffffffffffffffffffffffffffffffffffff021916908373ffffffffffffffffffffffffffffffffffffffff16021790555060608201518160030155905050505050565b6000600881819054906101000a900467ffffffffffffffff168092919060010191906101000a81548167ffffffffffffffff021916908367ffffffffffffffff1602179055505060405180608001604052808467ffffffffffffffff1681526020018381526020013373ffffffffffffffffffffffffffffffffffffffff16815260200182815250600260008060089054906101000a900467ffffffffffffffff1667ffffffffffffffff1667ffffffffffffffff16815260200190815260200160002060008201518160000160006101000a81548167ffffffffffffffff021916908367ffffffffffffffff1602179055506020820151816001019080519060200190610a4d929190610ac1565b5060408201518160020160006101000a81548173ffffffffffffffffffffffffffffffffffffffff021916908373ffffffffffffffffffffffffffffffffffffffff16021790555060608201518160030155905050505050565b600060089054906101000a900467ffffffffffffffff1681565b828054600181600116156101000203166002900490600052602060002090601f016020900481019282601f10610b0257805160ff1916838001178555610b30565b82800160010185558215610b30579182015b82811115610b2f578251825591602001919060010190610b14565b5b509050610b3d9190610b41565b5090565b610b6391905b80821115610b5f576000816000905550600101610b47565b5090565b9056fea165627a7a723058207d3f2ecb8f2947511a615ede403175f6a3a69ea4cecb38b3ab60eff33c34c5fb0029",
  "source": "pragma solidity ^0.5.0;\n\ncontract Posts{\n\n    /**\n        Post struct\n     */\n    struct Post{\n        string heading;\n        string content;\n        address postedBy;\n        uint postedOn;\n    }\n\n    struct Comment{\n        uint64 postId;\n        string content;\n        address postedBy;\n        uint postedOn;\n    }\n\n    uint64 public postsCount;\n    uint64 public commentsCount;\n    \n    /**\n        Store posts in a mapping\n     */\n    mapping(uint64 => Post) public postsMap;\n    /**\n        Store comments in a mapping\n     */\n    mapping(uint64 => Comment) public commentsMap;\n\n    /**\n        Create new Post\n     */\n    function newPost(string memory heading,string memory content,uint postedOn) public\n    {\n        postsCount++;\n        postsMap[postsCount] = Post(heading,content,msg.sender,postedOn);\n\n    }\n\n    /**\n        Create new Comment\n     */\n    function newComment(uint64 postId,string memory content,uint postedOn) public\n    {\n        commentsCount++;\n        commentsMap[commentsCount] = Comment(postId,content,msg.sender,postedOn);\n\n    }\n}\n\n",
  "sourcePath": "/home/chamodya/Documents/HashPost/contracts/Posts.sol",
  "compiler": {
    "name": "solc",
    "version": "0.5.8+commit.23d335f2.Emscripten.clang"
  },
  "schemaVersion": "3.0.10",
  "updatedAt": "2019-06-10T21:47:49.090Z",
  "devdoc": {
    "methods": {}
  },
  "userdoc": {
    "methods": {
      "newComment(uint64,string,uint256)": {
        "notice": "Create new Comment"
      },
      "newPost(string,string,uint256)": {
        "notice": "Create new Post"
      }
    }
  }
}