{
  "contractName": "Posts",
  "abi": [
    {
      "constant": true,
      "inputs": [
        {
          "name": "",
          "type": "address"
        },
        {
          "name": "",
          "type": "uint256"
        }
      ],
      "name": "postsMap",
      "outputs": [
        {
          "name": "heading",
          "type": "string"
        },
        {
          "name": "content",
          "type": "string"
        },
        {
          "name": "postedOn",
          "type": "string"
        }
      ],
      "payable": false,
      "stateMutability": "view",
      "type": "function",
      "signature": "0x6b353ed4"
    },
    {
      "constant": false,
      "inputs": [
        {
          "name": "heading",
          "type": "string"
        },
        {
          "name": "content",
          "type": "string"
        },
        {
          "name": "postedOn",
          "type": "string"
        }
      ],
      "name": "newPost",
      "outputs": [],
      "payable": false,
      "stateMutability": "nonpayable",
      "type": "function",
      "signature": "0x02c163a3"
    }
  ],
  "bytecode": "0x608060405234801561001057600080fd5b506107b6806100206000396000f3fe60806040526004361061004c576000357c0100000000000000000000000000000000000000000000000000000000900463ffffffff16806302c163a3146100515780636b353ed414610247575b600080fd5b34801561005d57600080fd5b506102456004803603606081101561007457600080fd5b810190808035906020019064010000000081111561009157600080fd5b8201836020820111156100a357600080fd5b803590602001918460018302840111640100000000831117156100c557600080fd5b91908080601f016020809104026020016040519081016040528093929190818152602001838380828437600081840152601f19601f8201169050808301925050505050505091929192908035906020019064010000000081111561012857600080fd5b82018360208201111561013a57600080fd5b8035906020019184600183028401116401000000008311171561015c57600080fd5b91908080601f016020809104026020016040519081016040528093929190818152602001838380828437600081840152601f19601f820116905080830192505050505050509192919290803590602001906401000000008111156101bf57600080fd5b8201836020820111156101d157600080fd5b803590602001918460018302840111640100000000831117156101f357600080fd5b91908080601f016020809104026020016040519081016040528093929190818152602001838380828437600081840152601f19601f8201169050808301925050505050505091929192905050506103f3565b005b34801561025357600080fd5b506102a06004803603604081101561026a57600080fd5b81019080803573ffffffffffffffffffffffffffffffffffffffff169060200190929190803590602001909291905050506104d7565b60405180806020018060200180602001848103845287818151815260200191508051906020019080838360005b838110156102e85780820151818401526020810190506102cd565b50505050905090810190601f1680156103155780820380516001836020036101000a031916815260200191505b50848103835286818151815260200191508051906020019080838360005b8381101561034e578082015181840152602081019050610333565b50505050905090810190601f16801561037b5780820380516001836020036101000a031916815260200191505b50848103825285818151815260200191508051906020019080838360005b838110156103b4578082015181840152602081019050610399565b50505050905090810190601f1680156103e15780820380516001836020036101000a031916815260200191505b50965050505050505060405180910390f35b6000803373ffffffffffffffffffffffffffffffffffffffff1673ffffffffffffffffffffffffffffffffffffffff168152602001908152602001600020606060405190810160405280858152602001848152602001838152509080600181540180825580915050906001820390600052602060002090600302016000909192909190915060008201518160000190805190602001906104949291906106e5565b5060208201518160010190805190602001906104b19291906106e5565b5060408201518160020190805190602001906104ce9291906106e5565b50505050505050565b6000602052816000526040600020818154811015156104f257fe5b906000526020600020906003020160009150915050806000018054600181600116156101000203166002900480601f01602080910402602001604051908101604052809291908181526020018280546001816001161561010002031660029004801561059f5780601f106105745761010080835404028352916020019161059f565b820191906000526020600020905b81548152906001019060200180831161058257829003601f168201915b505050505090806001018054600181600116156101000203166002900480601f01602080910402602001604051908101604052809291908181526020018280546001816001161561010002031660029004801561063d5780601f106106125761010080835404028352916020019161063d565b820191906000526020600020905b81548152906001019060200180831161062057829003601f168201915b505050505090806002018054600181600116156101000203166002900480601f0160208091040260200160405190810160405280929190818152602001828054600181600116156101000203166002900480156106db5780601f106106b0576101008083540402835291602001916106db565b820191906000526020600020905b8154815290600101906020018083116106be57829003601f168201915b5050505050905083565b828054600181600116156101000203166002900490600052602060002090601f016020900481019282601f1061072657805160ff1916838001178555610754565b82800160010185558215610754579182015b82811115610753578251825591602001919060010190610738565b5b5090506107619190610765565b5090565b61078791905b8082111561078357600081600090555060010161076b565b5090565b9056fea165627a7a723058204f342d1269ff6fa4796ed31da3aa9049f7ce55f14fa8155e51561b08763b23d90029",
  "source": "pragma solidity ^0.5.0;\n\ncontract Posts{\n\n    /**\n        Post struct\n     */\n    struct post{\n        string heading;\n        string content;\n        string postedOn;\n    }\n    \n    /**\n        Store posts in a mapping\n     */\n    mapping(address => post[]) public postsMap;\n\n    /**\n        Create new Post\n     */\n    function newPost(string memory heading,string memory content,string memory postedOn) public{\n        postsMap[msg.sender].push(post(heading,content,postedOn));\n    }\n\n    /**\n        functions for get posts and sort them\n     */\n}\n\n",
  "sourcePath": "/home/chamodya/Documents/HashPost/contracts/Posts.sol",
  "compiler": {
    "name": "solc",
    "version": "0.5.0+commit.1d4f565a.Emscripten.clang"
  },
  "schemaVersion": "3.0.2",
  "updatedAt": "2019-02-27T01:09:32.413Z",
  "devdoc": {
    "methods": {}
  },
  "userdoc": {
    "methods": {
      "newPost(string,string,string)": {
        "notice": "Create new Post"
      }
    }
  }
}