{
  "contractName": "Posts",
  "abi": [
    {
      "constant": true,
      "inputs": [
        {
          "name": "",
          "type": "uint64"
        }
      ],
      "name": "postsMap",
      "outputs": [
        {
          "name": "heading",
          "type": "string"
        },
        {
          "name": "content",
          "type": "string"
        },
        {
          "name": "postedBy",
          "type": "address"
        },
        {
          "name": "postedOn",
          "type": "uint256"
        }
      ],
      "payable": false,
      "stateMutability": "view",
      "type": "function"
    },
    {
      "constant": true,
      "inputs": [
        {
          "name": "",
          "type": "uint64"
        }
      ],
      "name": "commentsMap",
      "outputs": [
        {
          "name": "postId",
          "type": "uint64"
        },
        {
          "name": "content",
          "type": "string"
        },
        {
          "name": "postedBy",
          "type": "address"
        },
        {
          "name": "postedOn",
          "type": "uint256"
        }
      ],
      "payable": false,
      "stateMutability": "view",
      "type": "function"
    },
    {
      "constant": true,
      "inputs": [],
      "name": "postsCount",
      "outputs": [
        {
          "name": "",
          "type": "uint64"
        }
      ],
      "payable": false,
      "stateMutability": "view",
      "type": "function"
    },
    {
      "constant": true,
      "inputs": [],
      "name": "upVoteCount",
      "outputs": [
        {
          "name": "",
          "type": "uint64"
        }
      ],
      "payable": false,
      "stateMutability": "view",
      "type": "function"
    },
    {
      "constant": true,
      "inputs": [],
      "name": "downVoteCount",
      "outputs": [
        {
          "name": "",
          "type": "uint64"
        }
      ],
      "payable": false,
      "stateMutability": "view",
      "type": "function"
    },
    {
      "constant": true,
      "inputs": [
        {
          "name": "",
          "type": "uint64"
        }
      ],
      "name": "upVotes",
      "outputs": [
        {
          "name": "postId",
          "type": "uint64"
        },
        {
          "name": "userAddress",
          "type": "address"
        }
      ],
      "payable": false,
      "stateMutability": "view",
      "type": "function"
    },
    {
      "constant": true,
      "inputs": [],
      "name": "commentsCount",
      "outputs": [
        {
          "name": "",
          "type": "uint64"
        }
      ],
      "payable": false,
      "stateMutability": "view",
      "type": "function"
    },
    {
      "constant": true,
      "inputs": [
        {
          "name": "",
          "type": "uint64"
        }
      ],
      "name": "downVotes",
      "outputs": [
        {
          "name": "postId",
          "type": "uint64"
        },
        {
          "name": "userAddress",
          "type": "address"
        }
      ],
      "payable": false,
      "stateMutability": "view",
      "type": "function"
    },
    {
      "constant": false,
      "inputs": [
        {
          "name": "heading",
          "type": "string"
        },
        {
          "name": "content",
          "type": "string"
        },
        {
          "name": "postedOn",
          "type": "uint256"
        }
      ],
      "name": "newPost",
      "outputs": [],
      "payable": false,
      "stateMutability": "nonpayable",
      "type": "function"
    },
    {
      "constant": false,
      "inputs": [
        {
          "name": "postId",
          "type": "uint64"
        },
        {
          "name": "content",
          "type": "string"
        },
        {
          "name": "postedOn",
          "type": "uint256"
        }
      ],
      "name": "newComment",
      "outputs": [],
      "payable": false,
      "stateMutability": "nonpayable",
      "type": "function"
    },
    {
      "constant": false,
      "inputs": [
        {
          "name": "postId",
          "type": "uint64"
        },
        {
          "name": "user",
          "type": "address"
        }
      ],
      "name": "voteUp",
      "outputs": [],
      "payable": false,
      "stateMutability": "nonpayable",
      "type": "function"
    },
    {
      "constant": false,
      "inputs": [
        {
          "name": "postId",
          "type": "uint64"
        }
      ],
      "name": "voteDown",
      "outputs": [],
      "payable": false,
      "stateMutability": "nonpayable",
      "type": "function"
    }
  ],
  "bytecode": "0x608060405234801561001057600080fd5b5061114b806100206000396000f3fe608060405234801561001057600080fd5b50600436106100b45760003560e01c8063a28f49eb11610071578063a28f49eb146103e4578063bc9e3b9214610540578063c198715a146105d3578063c9bf646d146106ac578063d76928fd146106de578063f63bf4b514610736576100b4565b806306d797f4146100b957806308f6a53e146100f15780630b72cbe2146102485780632dcbe5451461034e57806336b8d7041461038057806373b761c1146103b2575b600080fd5b6100ef600480360360208110156100cf57600080fd5b81019080803567ffffffffffffffff1690602001909291905050506107c9565b005b6101276004803603602081101561010757600080fd5b81019080803567ffffffffffffffff1690602001909291905050506108fd565b6040518080602001806020018573ffffffffffffffffffffffffffffffffffffffff1673ffffffffffffffffffffffffffffffffffffffff168152602001848152602001838103835287818151815260200191508051906020019080838360005b838110156101a3578082015181840152602081019050610188565b50505050905090810190601f1680156101d05780820380516001836020036101000a031916815260200191505b50838103825286818151815260200191508051906020019080838360005b838110156102095780820151818401526020810190506101ee565b50505050905090810190601f1680156102365780820380516001836020036101000a031916815260200191505b50965050505050505060405180910390f35b61027e6004803603602081101561025e57600080fd5b81019080803567ffffffffffffffff169060200190929190505050610a7d565b604051808567ffffffffffffffff1667ffffffffffffffff168152602001806020018473ffffffffffffffffffffffffffffffffffffffff1673ffffffffffffffffffffffffffffffffffffffff168152602001838152602001828103825285818151815260200191508051906020019080838360005b838110156103105780820151818401526020810190506102f5565b50505050905090810190601f16801561033d5780820380516001836020036101000a031916815260200191505b509550505050505060405180910390f35b610356610b79565b604051808267ffffffffffffffff1667ffffffffffffffff16815260200191505060405180910390f35b610388610b92565b604051808267ffffffffffffffff1667ffffffffffffffff16815260200191505060405180910390f35b6103ba610bac565b604051808267ffffffffffffffff1667ffffffffffffffff16815260200191505060405180910390f35b61053e600480360360608110156103fa57600080fd5b810190808035906020019064010000000081111561041757600080fd5b82018360208201111561042957600080fd5b8035906020019184600183028401116401000000008311171561044b57600080fd5b91908080601f016020809104026020016040519081016040528093929190818152602001838380828437600081840152601f19601f820116905080830192505050505050509192919290803590602001906401000000008111156104ae57600080fd5b8201836020820111156104c057600080fd5b803590602001918460018302840111640100000000831117156104e257600080fd5b91908080601f016020809104026020016040519081016040528093929190818152602001838380828437600081840152601f19601f82011690508083019250505050505050919291929080359060200190929190505050610bc6565b005b6105766004803603602081101561055657600080fd5b81019080803567ffffffffffffffff169060200190929190505050610d12565b604051808367ffffffffffffffff1667ffffffffffffffff1681526020018273ffffffffffffffffffffffffffffffffffffffff1673ffffffffffffffffffffffffffffffffffffffff1681526020019250505060405180910390f35b6106aa600480360360608110156105e957600080fd5b81019080803567ffffffffffffffff1690602001909291908035906020019064010000000081111561061a57600080fd5b82018360208201111561062c57600080fd5b8035906020019184600183028401116401000000008311171561064e57600080fd5b91908080601f016020809104026020016040519081016040528093929190818152602001838380828437600081840152601f19601f82011690508083019250505050505050919291929080359060200190929190505050610d6a565b005b6106b4610ed3565b604051808267ffffffffffffffff1667ffffffffffffffff16815260200191505060405180910390f35b610734600480360360408110156106f457600080fd5b81019080803567ffffffffffffffff169060200190929190803573ffffffffffffffffffffffffffffffffffffffff169060200190929190505050610eed565b005b61076c6004803603602081101561074c57600080fd5b81019080803567ffffffffffffffff169060200190929190505050611022565b604051808367ffffffffffffffff1667ffffffffffffffff1681526020018273ffffffffffffffffffffffffffffffffffffffff1673ffffffffffffffffffffffffffffffffffffffff1681526020019250505060405180910390f35b6000601881819054906101000a900467ffffffffffffffff168092919060010191906101000a81548167ffffffffffffffff021916908367ffffffffffffffff1602179055505060405180604001604052808267ffffffffffffffff1681526020013373ffffffffffffffffffffffffffffffffffffffff16815250600460008060189054906101000a900467ffffffffffffffff1667ffffffffffffffff1667ffffffffffffffff16815260200190815260200160002060008201518160000160006101000a81548167ffffffffffffffff021916908367ffffffffffffffff16021790555060208201518160000160086101000a81548173ffffffffffffffffffffffffffffffffffffffff021916908373ffffffffffffffffffffffffffffffffffffffff16021790555090505050565b6001602052806000526040600020600091509050806000018054600181600116156101000203166002900480601f0160208091040260200160405190810160405280929190818152602001828054600181600116156101000203166002900480156109a95780601f1061097e576101008083540402835291602001916109a9565b820191906000526020600020905b81548152906001019060200180831161098c57829003601f168201915b505050505090806001018054600181600116156101000203166002900480601f016020809104026020016040519081016040528092919081815260200182805460018160011615610100020316600290048015610a475780601f10610a1c57610100808354040283529160200191610a47565b820191906000526020600020905b815481529060010190602001808311610a2a57829003601f168201915b5050505050908060020160009054906101000a900473ffffffffffffffffffffffffffffffffffffffff16908060030154905084565b60026020528060005260406000206000915090508060000160009054906101000a900467ffffffffffffffff1690806001018054600181600116156101000203166002900480601f016020809104026020016040519081016040528092919081815260200182805460018160011615610100020316600290048015610b435780601f10610b1857610100808354040283529160200191610b43565b820191906000526020600020905b815481529060010190602001808311610b2657829003601f168201915b5050505050908060020160009054906101000a900473ffffffffffffffffffffffffffffffffffffffff16908060030154905084565b6000809054906101000a900467ffffffffffffffff1681565b600060109054906101000a900467ffffffffffffffff1681565b600060189054906101000a900467ffffffffffffffff1681565b60008081819054906101000a900467ffffffffffffffff168092919060010191906101000a81548167ffffffffffffffff021916908367ffffffffffffffff1602179055505060405180608001604052808481526020018381526020013373ffffffffffffffffffffffffffffffffffffffff16815260200182815250600160008060009054906101000a900467ffffffffffffffff1667ffffffffffffffff1667ffffffffffffffff1681526020019081526020016000206000820151816000019080519060200190610c9b92919061107a565b506020820151816001019080519060200190610cb892919061107a565b5060408201518160020160006101000a81548173ffffffffffffffffffffffffffffffffffffffff021916908373ffffffffffffffffffffffffffffffffffffffff16021790555060608201518160030155905050505050565b60036020528060005260406000206000915090508060000160009054906101000a900467ffffffffffffffff16908060000160089054906101000a900473ffffffffffffffffffffffffffffffffffffffff16905082565b6000600881819054906101000a900467ffffffffffffffff168092919060010191906101000a81548167ffffffffffffffff021916908367ffffffffffffffff1602179055505060405180608001604052808467ffffffffffffffff1681526020018381526020013373ffffffffffffffffffffffffffffffffffffffff16815260200182815250600260008060089054906101000a900467ffffffffffffffff1667ffffffffffffffff1667ffffffffffffffff16815260200190815260200160002060008201518160000160006101000a81548167ffffffffffffffff021916908367ffffffffffffffff1602179055506020820151816001019080519060200190610e7992919061107a565b5060408201518160020160006101000a81548173ffffffffffffffffffffffffffffffffffffffff021916908373ffffffffffffffffffffffffffffffffffffffff16021790555060608201518160030155905050505050565b600060089054906101000a900467ffffffffffffffff1681565b6000601081819054906101000a900467ffffffffffffffff168092919060010191906101000a81548167ffffffffffffffff021916908367ffffffffffffffff1602179055505060405180604001604052808367ffffffffffffffff1681526020018273ffffffffffffffffffffffffffffffffffffffff16815250600360008060109054906101000a900467ffffffffffffffff1667ffffffffffffffff1667ffffffffffffffff16815260200190815260200160002060008201518160000160006101000a81548167ffffffffffffffff021916908367ffffffffffffffff16021790555060208201518160000160086101000a81548173ffffffffffffffffffffffffffffffffffffffff021916908373ffffffffffffffffffffffffffffffffffffffff1602179055509050505050565b60046020528060005260406000206000915090508060000160009054906101000a900467ffffffffffffffff16908060000160089054906101000a900473ffffffffffffffffffffffffffffffffffffffff16905082565b828054600181600116156101000203166002900490600052602060002090601f016020900481019282601f106110bb57805160ff19168380011785556110e9565b828001600101855582156110e9579182015b828111156110e85782518255916020019190600101906110cd565b5b5090506110f691906110fa565b5090565b61111c91905b80821115611118576000816000905550600101611100565b5090565b9056fea165627a7a72305820634425b2a90ca6d2ab6637dd9aca2f17a7df8a0abc0d19ba879b22c0729072eb0029",
  "source": "pragma solidity ^0.5.0;\n\ncontract Posts{\n\n    /**\n        Post struct\n     */\n    struct Post{\n        string heading;\n        string content;\n        address postedBy;\n        uint postedOn;\n    }\n\n    struct Comment{\n        uint64 postId;\n        string content;\n        address postedBy;\n        uint postedOn;\n    }\n\n    struct UpVote{\n        uint64 postId;\n        address userAddress;\n    }\n\n    struct DownVote{\n        uint64 postId;\n        address userAddress;\n    }\n\n    uint64 public postsCount;\n    uint64 public commentsCount;\n    uint64 public upVoteCount;\n    uint64 public downVoteCount;\n    \n    /**\n        Store posts in a mapping\n     */\n    mapping(uint64 => Post) public postsMap;\n    /**\n        Store comments in a mapping\n     */\n    mapping(uint64 => Comment) public commentsMap;\n\n    mapping(uint64 => UpVote) public upVotes;\n\n    mapping(uint64 => DownVote) public downVotes;\n\n    /**\n        Create new Post\n     */\n    function newPost(string memory heading,string memory content,uint postedOn) public\n    {\n        postsCount++;\n        postsMap[postsCount] = Post(heading,content,msg.sender,postedOn);\n\n    }\n\n    /**\n        Create new Comment\n     */\n    function newComment(uint64 postId,string memory content,uint postedOn) public\n    {\n        commentsCount++;\n        commentsMap[commentsCount] = Comment(postId,content,msg.sender,postedOn);\n\n    }\n\n    function voteUp(uint64 postId, address user) public{\n        upVoteCount++;\n        upVotes[upVoteCount] = UpVote(postId, user);\n    }\n\n    function voteDown(uint64 postId) public{\n        downVoteCount++;\n        downVotes[downVoteCount] = DownVote(postId, msg.sender);\n    }\n}\n\n",
  "sourcePath": "/home/chamodya/Documents/HashPost/contracts/Posts.sol",
  "compiler": {
    "name": "solc",
    "version": "0.5.8+commit.23d335f2.Emscripten.clang"
  },
  "schemaVersion": "3.0.10",
  "updatedAt": "2019-06-11T02:35:17.041Z",
  "devdoc": {
    "methods": {}
  },
  "userdoc": {
    "methods": {
      "newComment(uint64,string,uint256)": {
        "notice": "Create new Comment"
      },
      "newPost(string,string,uint256)": {
        "notice": "Create new Post"
      }
    }
  }
}