{
  "contractName": "Posts",
  "abi": [
    {
      "constant": true,
      "inputs": [],
      "name": "postsCount",
      "outputs": [
        {
          "name": "",
          "type": "uint256"
        }
      ],
      "payable": false,
      "stateMutability": "view",
      "type": "function"
    },
    {
      "constant": true,
      "inputs": [
        {
          "name": "",
          "type": "uint256"
        }
      ],
      "name": "postsMap",
      "outputs": [
        {
          "name": "heading",
          "type": "string"
        },
        {
          "name": "content",
          "type": "string"
        },
        {
          "name": "postedBy",
          "type": "address"
        },
        {
          "name": "postedOn",
          "type": "string"
        }
      ],
      "payable": false,
      "stateMutability": "view",
      "type": "function"
    },
    {
      "constant": false,
      "inputs": [
        {
          "name": "heading",
          "type": "string"
        },
        {
          "name": "content",
          "type": "string"
        },
        {
          "name": "postedOn",
          "type": "string"
        }
      ],
      "name": "newPost",
      "outputs": [],
      "payable": false,
      "stateMutability": "nonpayable",
      "type": "function"
    }
  ],
  "bytecode": "0x608060405234801561001057600080fd5b506107f0806100206000396000f3fe608060405234801561001057600080fd5b50600436106100415760003560e01c806302c163a3146100465780632dcbe5451461022f57806371f48ab21461024d575b600080fd5b61022d6004803603606081101561005c57600080fd5b810190808035906020019064010000000081111561007957600080fd5b82018360208201111561008b57600080fd5b803590602001918460018302840111640100000000831117156100ad57600080fd5b91908080601f016020809104026020016040519081016040528093929190818152602001838380828437600081840152601f19601f8201169050808301925050505050505091929192908035906020019064010000000081111561011057600080fd5b82018360208201111561012257600080fd5b8035906020019184600183028401116401000000008311171561014457600080fd5b91908080601f016020809104026020016040519081016040528093929190818152602001838380828437600081840152601f19601f820116905080830192505050505050509192919290803590602001906401000000008111156101a757600080fd5b8201836020820111156101b957600080fd5b803590602001918460018302840111640100000000831117156101db57600080fd5b91908080601f016020809104026020016040519081016040528093929190818152602001838380828437600081840152601f19601f8201169050808301925050505050505091929192905050506103ff565b005b610237610501565b6040518082815260200191505060405180910390f35b6102796004803603602081101561026357600080fd5b8101908080359060200190929190505050610507565b6040518080602001806020018573ffffffffffffffffffffffffffffffffffffffff1673ffffffffffffffffffffffffffffffffffffffff16815260200180602001848103845288818151815260200191508051906020019080838360005b838110156102f35780820151818401526020810190506102d8565b50505050905090810190601f1680156103205780820380516001836020036101000a031916815260200191505b50848103835287818151815260200191508051906020019080838360005b8381101561035957808201518184015260208101905061033e565b50505050905090810190601f1680156103865780820380516001836020036101000a031916815260200191505b50848103825285818151815260200191508051906020019080838360005b838110156103bf5780820151818401526020810190506103a4565b50505050905090810190601f1680156103ec5780820380516001836020036101000a031916815260200191505b5097505050505050505060405180910390f35b600080815480929190600101919050555060405180608001604052808481526020018381526020013373ffffffffffffffffffffffffffffffffffffffff168152602001828152506001600080548152602001908152602001600020600082015181600001908051906020019061047792919061071f565b50602082015181600101908051906020019061049492919061071f565b5060408201518160020160006101000a81548173ffffffffffffffffffffffffffffffffffffffff021916908373ffffffffffffffffffffffffffffffffffffffff16021790555060608201518160030190805190602001906104f892919061071f565b50905050505050565b60005481565b6001602052806000526040600020600091509050806000018054600181600116156101000203166002900480601f0160208091040260200160405190810160405280929190818152602001828054600181600116156101000203166002900480156105b35780601f10610588576101008083540402835291602001916105b3565b820191906000526020600020905b81548152906001019060200180831161059657829003601f168201915b505050505090806001018054600181600116156101000203166002900480601f0160208091040260200160405190810160405280929190818152602001828054600181600116156101000203166002900480156106515780601f1061062657610100808354040283529160200191610651565b820191906000526020600020905b81548152906001019060200180831161063457829003601f168201915b5050505050908060020160009054906101000a900473ffffffffffffffffffffffffffffffffffffffff1690806003018054600181600116156101000203166002900480601f0160208091040260200160405190810160405280929190818152602001828054600181600116156101000203166002900480156107155780601f106106ea57610100808354040283529160200191610715565b820191906000526020600020905b8154815290600101906020018083116106f857829003601f168201915b5050505050905084565b828054600181600116156101000203166002900490600052602060002090601f016020900481019282601f1061076057805160ff191683800117855561078e565b8280016001018555821561078e579182015b8281111561078d578251825591602001919060010190610772565b5b50905061079b919061079f565b5090565b6107c191905b808211156107bd5760008160009055506001016107a5565b5090565b9056fea165627a7a723058202dbce329d8df5bec232c38ccc7a2d037b338046a8f08ed39503f58091d6c9dfb0029",
  "source": "pragma solidity ^0.5.0;\n\ncontract Posts{\n\n    /**\n        Post struct\n     */\n    struct Post{\n        string heading;\n        string content;\n        address postedBy;\n        string postedOn;\n    }\n\n    uint public postsCount;\n    \n    /**\n        Store posts in a mapping\n     */\n    mapping(uint => Post) public postsMap;\n\n    /**\n        Create new Post\n     */\n    function newPost(string memory heading,string memory content,string memory postedOn) public\n    {\n        postsCount++;\n        postsMap[postsCount] = Post(heading,content,msg.sender,postedOn);\n\n    }\n}\n\n",
  "sourcePath": "/home/chamodya/Documents/HashPost/contracts/Posts.sol",
  "compiler": {
    "name": "solc",
    "version": "0.5.8+commit.23d335f2.Emscripten.clang"
  },
  "schemaVersion": "3.0.10",
  "updatedAt": "2019-06-09T05:14:12.537Z",
  "devdoc": {
    "methods": {}
  },
  "userdoc": {
    "methods": {
      "newPost(string,string,string)": {
        "notice": "Create new Post"
      }
    }
  }
}