{
  "contractName": "Users",
  "abi": [
    {
      "constant": true,
      "inputs": [],
      "name": "userCount",
      "outputs": [
        {
          "name": "",
          "type": "uint256"
        }
      ],
      "payable": false,
      "stateMutability": "view",
      "type": "function"
    },
    {
      "constant": true,
      "inputs": [
        {
          "name": "",
          "type": "address"
        }
      ],
      "name": "users",
      "outputs": [
        {
          "name": "username",
          "type": "string"
        },
        {
          "name": "country",
          "type": "string"
        },
        {
          "name": "bio",
          "type": "string"
        },
        {
          "name": "createdOn",
          "type": "string"
        },
        {
          "name": "isActive",
          "type": "bool"
        }
      ],
      "payable": false,
      "stateMutability": "view",
      "type": "function"
    },
    {
      "constant": false,
      "inputs": [
        {
          "name": "username",
          "type": "string"
        },
        {
          "name": "country",
          "type": "string"
        },
        {
          "name": "bio",
          "type": "string"
        },
        {
          "name": "createdOn",
          "type": "string"
        }
      ],
      "name": "newUser",
      "outputs": [],
      "payable": false,
      "stateMutability": "nonpayable",
      "type": "function"
    }
  ],
  "bytecode": "0x608060405234801561001057600080fd5b50610981806100206000396000f3fe608060405234801561001057600080fd5b50600436106100415760003560e01c806307973ccf14610046578063a87430ba14610064578063c81bcdeb14610270575b600080fd5b61004e6104f0565b6040518082815260200191505060405180910390f35b6100a66004803603602081101561007a57600080fd5b81019080803573ffffffffffffffffffffffffffffffffffffffff1690602001909291905050506104f6565b60405180806020018060200180602001806020018615151515815260200185810385528a818151815260200191508051906020019080838360005b838110156100fc5780820151818401526020810190506100e1565b50505050905090810190601f1680156101295780820380516001836020036101000a031916815260200191505b50858103845289818151815260200191508051906020019080838360005b83811015610162578082015181840152602081019050610147565b50505050905090810190601f16801561018f5780820380516001836020036101000a031916815260200191505b50858103835288818151815260200191508051906020019080838360005b838110156101c85780820151818401526020810190506101ad565b50505050905090810190601f1680156101f55780820380516001836020036101000a031916815260200191505b50858103825287818151815260200191508051906020019080838360005b8381101561022e578082015181840152602081019050610213565b50505050905090810190601f16801561025b5780820380516001836020036101000a031916815260200191505b50995050505050505050505060405180910390f35b6104ee6004803603608081101561028657600080fd5b81019080803590602001906401000000008111156102a357600080fd5b8201836020820111156102b557600080fd5b803590602001918460018302840111640100000000831117156102d757600080fd5b91908080601f016020809104026020016040519081016040528093929190818152602001838380828437600081840152601f19601f8201169050808301925050505050505091929192908035906020019064010000000081111561033a57600080fd5b82018360208201111561034c57600080fd5b8035906020019184600183028401116401000000008311171561036e57600080fd5b91908080601f016020809104026020016040519081016040528093929190818152602001838380828437600081840152601f19601f820116905080830192505050505050509192919290803590602001906401000000008111156103d157600080fd5b8201836020820111156103e357600080fd5b8035906020019184600183028401116401000000008311171561040557600080fd5b91908080601f016020809104026020016040519081016040528093929190818152602001838380828437600081840152601f19601f8201169050808301925050505050505091929192908035906020019064010000000081111561046857600080fd5b82018360208201111561047a57600080fd5b8035906020019184600183028401116401000000008311171561049c57600080fd5b91908080601f016020809104026020016040519081016040528093929190818152602001838380828437600081840152601f19601f820116905080830192505050505050509192919290505050610799565b005b60025481565b6000602052806000526040600020600091509050806000018054600181600116156101000203166002900480601f0160208091040260200160405190810160405280929190818152602001828054600181600116156101000203166002900480156105a25780601f10610577576101008083540402835291602001916105a2565b820191906000526020600020905b81548152906001019060200180831161058557829003601f168201915b505050505090806001018054600181600116156101000203166002900480601f0160208091040260200160405190810160405280929190818152602001828054600181600116156101000203166002900480156106405780601f1061061557610100808354040283529160200191610640565b820191906000526020600020905b81548152906001019060200180831161062357829003601f168201915b505050505090806002018054600181600116156101000203166002900480601f0160208091040260200160405190810160405280929190818152602001828054600181600116156101000203166002900480156106de5780601f106106b3576101008083540402835291602001916106de565b820191906000526020600020905b8154815290600101906020018083116106c157829003601f168201915b505050505090806003018054600181600116156101000203166002900480601f01602080910402602001604051908101604052809291908181526020018280546001816001161561010002031660029004801561077c5780601f106107515761010080835404028352916020019161077c565b820191906000526020600020905b81548152906001019060200180831161075f57829003601f168201915b5050505050908060040160009054906101000a900460ff16905085565b6040518060a00160405280858152602001848152602001838152602001828152602001600115158152506000803373ffffffffffffffffffffffffffffffffffffffff1673ffffffffffffffffffffffffffffffffffffffff168152602001908152602001600020600082015181600001908051906020019061081d9291906108b0565b50602082015181600101908051906020019061083a9291906108b0565b5060408201518160020190805190602001906108579291906108b0565b5060608201518160030190805190602001906108749291906108b0565b5060808201518160040160006101000a81548160ff02191690831515021790555090505060026000815480929190600101919050555050505050565b828054600181600116156101000203166002900490600052602060002090601f016020900481019282601f106108f157805160ff191683800117855561091f565b8280016001018555821561091f579182015b8281111561091e578251825591602001919060010190610903565b5b50905061092c9190610930565b5090565b61095291905b8082111561094e576000816000905550600101610936565b5090565b9056fea165627a7a7230582021a791ba252f6de4c1ee09e645836e4ee740783f9beae759aa1ea6cc85baff620029",
  "source": "pragma solidity ^0.5.0;\n\ncontract Users{\n\n    struct user{\n        string username;\n        string country;\n        string bio;\n        string createdOn;\n        bool isActive;\n    }\n    /**\n        Store users of the website\n     */\n    mapping(address => user) public users;\n\n    /**\n        Store folowers\n     */\n    mapping(address => address[]) userFollowers;\n\n    /**\n        Remember the user count\n     */\n     uint public userCount;\n\n    /**\n        add new user\n     */\n    function newUser(string memory username, string memory country, string memory bio, string memory createdOn) public{\n        users[msg.sender] = user(username,country,bio,createdOn, true);\n        userCount++;\n    }\n\n\n}",
  "sourcePath": "/home/chamodya/Documents/HashPost/contracts/Users.sol",
  "compiler": {
    "name": "solc",
    "version": "0.5.8+commit.23d335f2.Emscripten.clang"
  },
  "schemaVersion": "3.0.10",
  "updatedAt": "2019-06-11T02:35:16.759Z",
  "devdoc": {
    "methods": {}
  },
  "userdoc": {
    "methods": {
      "newUser(string,string,string,string)": {
        "notice": "add new user"
      }
    }
  }
}